{
  "_format": "hh-sol-artifact-1",
  "contractName": "Picture",
  "sourceName": "contracts/Picture.sol",
  "abi": [
    {
      "inputs": [],
      "stateMutability": "nonpayable",
      "type": "constructor"
    },
    {
      "anonymous": false,
      "inputs": [
        {
          "indexed": true,
          "internalType": "address",
          "name": "owner",
          "type": "address"
        },
        {
          "indexed": true,
          "internalType": "address",
          "name": "approved",
          "type": "address"
        },
        {
          "indexed": true,
          "internalType": "uint256",
          "name": "tokenId",
          "type": "uint256"
        }
      ],
      "name": "Approval",
      "type": "event"
    },
    {
      "anonymous": false,
      "inputs": [
        {
          "indexed": true,
          "internalType": "address",
          "name": "owner",
          "type": "address"
        },
        {
          "indexed": true,
          "internalType": "address",
          "name": "operator",
          "type": "address"
        },
        {
          "indexed": false,
          "internalType": "bool",
          "name": "approved",
          "type": "bool"
        }
      ],
      "name": "ApprovalForAll",
      "type": "event"
    },
    {
      "anonymous": false,
      "inputs": [
        {
          "indexed": true,
          "internalType": "address",
          "name": "from",
          "type": "address"
        },
        {
          "indexed": true,
          "internalType": "address",
          "name": "to",
          "type": "address"
        },
        {
          "indexed": true,
          "internalType": "uint256",
          "name": "tokenId",
          "type": "uint256"
        }
      ],
      "name": "Transfer",
      "type": "event"
    },
    {
      "inputs": [
        {
          "internalType": "address",
          "name": "to",
          "type": "address"
        },
        {
          "internalType": "uint256",
          "name": "tokenId",
          "type": "uint256"
        }
      ],
      "name": "approve",
      "outputs": [],
      "stateMutability": "nonpayable",
      "type": "function"
    },
    {
      "inputs": [
        {
          "internalType": "address",
          "name": "owner",
          "type": "address"
        }
      ],
      "name": "balanceOf",
      "outputs": [
        {
          "internalType": "uint256",
          "name": "",
          "type": "uint256"
        }
      ],
      "stateMutability": "view",
      "type": "function"
    },
    {
      "inputs": [
        {
          "internalType": "uint256",
          "name": "tokenId",
          "type": "uint256"
        }
      ],
      "name": "getApproved",
      "outputs": [
        {
          "internalType": "address",
          "name": "",
          "type": "address"
        }
      ],
      "stateMutability": "view",
      "type": "function"
    },
    {
      "inputs": [
        {
          "internalType": "address",
          "name": "owner",
          "type": "address"
        },
        {
          "internalType": "address",
          "name": "operator",
          "type": "address"
        }
      ],
      "name": "isApprovedForAll",
      "outputs": [
        {
          "internalType": "bool",
          "name": "",
          "type": "bool"
        }
      ],
      "stateMutability": "view",
      "type": "function"
    },
    {
      "inputs": [
        {
          "internalType": "string",
          "name": "_hash",
          "type": "string"
        }
      ],
      "name": "mint",
      "outputs": [],
      "stateMutability": "nonpayable",
      "type": "function"
    },
    {
      "inputs": [],
      "name": "name",
      "outputs": [
        {
          "internalType": "string",
          "name": "",
          "type": "string"
        }
      ],
      "stateMutability": "view",
      "type": "function"
    },
    {
      "inputs": [
        {
          "internalType": "uint256",
          "name": "tokenId",
          "type": "uint256"
        }
      ],
      "name": "ownerOf",
      "outputs": [
        {
          "internalType": "address",
          "name": "",
          "type": "address"
        }
      ],
      "stateMutability": "view",
      "type": "function"
    },
    {
      "inputs": [
        {
          "internalType": "uint256",
          "name": "",
          "type": "uint256"
        }
      ],
      "name": "pictureHashes",
      "outputs": [
        {
          "internalType": "string",
          "name": "",
          "type": "string"
        }
      ],
      "stateMutability": "view",
      "type": "function"
    },
    {
      "inputs": [
        {
          "internalType": "address",
          "name": "from",
          "type": "address"
        },
        {
          "internalType": "address",
          "name": "to",
          "type": "address"
        },
        {
          "internalType": "uint256",
          "name": "tokenId",
          "type": "uint256"
        }
      ],
      "name": "safeTransferFrom",
      "outputs": [],
      "stateMutability": "nonpayable",
      "type": "function"
    },
    {
      "inputs": [
        {
          "internalType": "address",
          "name": "from",
          "type": "address"
        },
        {
          "internalType": "address",
          "name": "to",
          "type": "address"
        },
        {
          "internalType": "uint256",
          "name": "tokenId",
          "type": "uint256"
        },
        {
          "internalType": "bytes",
          "name": "_data",
          "type": "bytes"
        }
      ],
      "name": "safeTransferFrom",
      "outputs": [],
      "stateMutability": "nonpayable",
      "type": "function"
    },
    {
      "inputs": [
        {
          "internalType": "address",
          "name": "operator",
          "type": "address"
        },
        {
          "internalType": "bool",
          "name": "approved",
          "type": "bool"
        }
      ],
      "name": "setApprovalForAll",
      "outputs": [],
      "stateMutability": "nonpayable",
      "type": "function"
    },
    {
      "inputs": [
        {
          "internalType": "bytes4",
          "name": "interfaceId",
          "type": "bytes4"
        }
      ],
      "name": "supportsInterface",
      "outputs": [
        {
          "internalType": "bool",
          "name": "",
          "type": "bool"
        }
      ],
      "stateMutability": "view",
      "type": "function"
    },
    {
      "inputs": [],
      "name": "symbol",
      "outputs": [
        {
          "internalType": "string",
          "name": "",
          "type": "string"
        }
      ],
      "stateMutability": "view",
      "type": "function"
    },
    {
      "inputs": [
        {
          "internalType": "uint256",
          "name": "index",
          "type": "uint256"
        }
      ],
      "name": "tokenByIndex",
      "outputs": [
        {
          "internalType": "uint256",
          "name": "",
          "type": "uint256"
        }
      ],
      "stateMutability": "view",
      "type": "function"
    },
    {
      "inputs": [
        {
          "internalType": "address",
          "name": "owner",
          "type": "address"
        },
        {
          "internalType": "uint256",
          "name": "index",
          "type": "uint256"
        }
      ],
      "name": "tokenOfOwnerByIndex",
      "outputs": [
        {
          "internalType": "uint256",
          "name": "",
          "type": "uint256"
        }
      ],
      "stateMutability": "view",
      "type": "function"
    },
    {
      "inputs": [
        {
          "internalType": "uint256",
          "name": "tokenId",
          "type": "uint256"
        }
      ],
      "name": "tokenURI",
      "outputs": [
        {
          "internalType": "string",
          "name": "",
          "type": "string"
        }
      ],
      "stateMutability": "view",
      "type": "function"
    },
    {
      "inputs": [],
      "name": "totalSupply",
      "outputs": [
        {
          "internalType": "uint256",
          "name": "",
          "type": "uint256"
        }
      ],
      "stateMutability": "view",
      "type": "function"
    },
    {
      "inputs": [
        {
          "internalType": "address",
          "name": "from",
          "type": "address"
        },
        {
          "internalType": "address",
          "name": "to",
          "type": "address"
        },
        {
          "internalType": "uint256",
          "name": "tokenId",
          "type": "uint256"
        }
      ],
      "name": "transferFrom",
      "outputs": [],
      "stateMutability": "nonpayable",
      "type": "function"
    }
  ],
  "bytecode": "0x60806040523480156200001157600080fd5b506040518060400160405280600781526020017f50696374757265000000000000000000000000000000000000000000000000008152506040518060400160405280600781526020017f5049435455524500000000000000000000000000000000000000000000000000815250816000908051906020019062000096929190620000b8565b508060019080519060200190620000af929190620000b8565b505050620001cd565b828054620000c69062000168565b90600052602060002090601f016020900481019282620000ea576000855562000136565b82601f106200010557805160ff191683800117855562000136565b8280016001018555821562000136579182015b828111156200013557825182559160200191906001019062000118565b5b50905062000145919062000149565b5090565b5b80821115620001645760008160009055506001016200014a565b5090565b600060028204905060018216806200018157607f821691505b602082108114156200019857620001976200019e565b5b50919050565b7f4e487b7100000000000000000000000000000000000000000000000000000000600052602260045260246000fd5b6130f580620001dd6000396000f3fe608060405234801561001057600080fd5b50600436106101165760003560e01c80636352211e116100a2578063a22cb46511610071578063a22cb46514610319578063b88d4fde14610335578063c87b56dd14610351578063d85d3d2714610381578063e985e9c51461039d57610116565b80636352211e1461026b5780636a48b4cf1461029b57806370a08231146102cb57806395d89b41146102fb57610116565b806318160ddd116100e957806318160ddd146101b557806323b872dd146101d35780632f745c59146101ef57806342842e0e1461021f5780634f6ccce71461023b57610116565b806301ffc9a71461011b57806306fdde031461014b578063081812fc14610169578063095ea7b314610199575b600080fd5b61013560048036038101906101309190612231565b6103cd565b6040516101429190612a4d565b60405180910390f35b610153610447565b6040516101609190612a68565b60405180910390f35b610183600480360381019061017e91906122c4565b6104d9565b60405161019091906129e6565b60405180910390f35b6101b360048036038101906101ae91906121f5565b61055e565b005b6101bd610676565b6040516101ca9190612c8a565b60405180910390f35b6101ed60048036038101906101e891906120ef565b610683565b005b610209600480360381019061020491906121f5565b6106e3565b6040516102169190612c8a565b60405180910390f35b610239600480360381019061023491906120ef565b610788565b005b610255600480360381019061025091906122c4565b6107a8565b6040516102629190612c8a565b60405180910390f35b610285600480360381019061028091906122c4565b61083f565b60405161029291906129e6565b60405180910390f35b6102b560048036038101906102b091906122c4565b6108f1565b6040516102c29190612a68565b60405180910390f35b6102e560048036038101906102e0919061208a565b61099d565b6040516102f29190612c8a565b60405180910390f35b610303610a55565b6040516103109190612a68565b60405180910390f35b610333600480360381019061032e91906121b9565b610ae7565b005b61034f600480360381019061034a919061213e565b610c68565b005b61036b600480360381019061036691906122c4565b610cca565b6040516103789190612a68565b60405180910390f35b61039b60048036038101906103969190612283565b610d71565b005b6103b760048036038101906103b291906120b3565b610e3e565b6040516103c49190612a4d565b60405180910390f35b60007f780e9d63000000000000000000000000000000000000000000000000000000007bffffffffffffffffffffffffffffffffffffffffffffffffffffffff1916827bffffffffffffffffffffffffffffffffffffffffffffffffffffffff19161480610440575061043f82610ed2565b5b9050919050565b60606000805461045690612eea565b80601f016020809104026020016040519081016040528092919081815260200182805461048290612eea565b80156104cf5780601f106104a4576101008083540402835291602001916104cf565b820191906000526020600020905b8154815290600101906020018083116104b257829003601f168201915b5050505050905090565b60006104e482610fb4565b610523576040517f08c379a000000000000000000000000000000000000000000000000000000000815260040161051a90612bca565b60405180910390fd5b6004600083815260200190815260200160002060009054906101000a900473ffffffffffffffffffffffffffffffffffffffff169050919050565b60006105698261083f565b90508073ffffffffffffffffffffffffffffffffffffffff168373ffffffffffffffffffffffffffffffffffffffff1614156105da576040517f08c379a00000000000000000000000000000000000000000000000000000000081526004016105d190612c2a565b60405180910390fd5b8073ffffffffffffffffffffffffffffffffffffffff166105f9611020565b73ffffffffffffffffffffffffffffffffffffffff161480610628575061062781610622611020565b610e3e565b5b610667576040517f08c379a000000000000000000000000000000000000000000000000000000000815260040161065e90612b4a565b60405180910390fd5b6106718383611028565b505050565b6000600880549050905090565b61069461068e611020565b826110e1565b6106d3576040517f08c379a00000000000000000000000000000000000000000000000000000000081526004016106ca90612c4a565b60405180910390fd5b6106de8383836111bf565b505050565b60006106ee8361099d565b821061072f576040517f08c379a000000000000000000000000000000000000000000000000000000000815260040161072690612a8a565b60405180910390fd5b600660008473ffffffffffffffffffffffffffffffffffffffff1673ffffffffffffffffffffffffffffffffffffffff168152602001908152602001600020600083815260200190815260200160002054905092915050565b6107a383838360405180602001604052806000815250610c68565b505050565b60006107b2610676565b82106107f3576040517f08c379a00000000000000000000000000000000000000000000000000000000081526004016107ea90612c6a565b60405180910390fd5b6008828154811061082d577f4e487b7100000000000000000000000000000000000000000000000000000000600052603260045260246000fd5b90600052602060002001549050919050565b6000806002600084815260200190815260200160002060009054906101000a900473ffffffffffffffffffffffffffffffffffffffff169050600073ffffffffffffffffffffffffffffffffffffffff168173ffffffffffffffffffffffffffffffffffffffff1614156108e8576040517f08c379a00000000000000000000000000000000000000000000000000000000081526004016108df90612b8a565b60405180910390fd5b80915050919050565b600a818154811061090157600080fd5b90600052602060002001600091509050805461091c90612eea565b80601f016020809104026020016040519081016040528092919081815260200182805461094890612eea565b80156109955780601f1061096a57610100808354040283529160200191610995565b820191906000526020600020905b81548152906001019060200180831161097857829003601f168201915b505050505081565b60008073ffffffffffffffffffffffffffffffffffffffff168273ffffffffffffffffffffffffffffffffffffffff161415610a0e576040517f08c379a0000000000000000000000000000000000000000000000000000000008152600401610a0590612b6a565b60405180910390fd5b600360008373ffffffffffffffffffffffffffffffffffffffff1673ffffffffffffffffffffffffffffffffffffffff168152602001908152602001600020549050919050565b606060018054610a6490612eea565b80601f0160208091040260200160405190810160405280929190818152602001828054610a9090612eea565b8015610add5780601f10610ab257610100808354040283529160200191610add565b820191906000526020600020905b815481529060010190602001808311610ac057829003601f168201915b5050505050905090565b610aef611020565b73ffffffffffffffffffffffffffffffffffffffff168273ffffffffffffffffffffffffffffffffffffffff161415610b5d576040517f08c379a0000000000000000000000000000000000000000000000000000000008152600401610b5490612b0a565b60405180910390fd5b8060056000610b6a611020565b73ffffffffffffffffffffffffffffffffffffffff1673ffffffffffffffffffffffffffffffffffffffff16815260200190815260200160002060008473ffffffffffffffffffffffffffffffffffffffff1673ffffffffffffffffffffffffffffffffffffffff16815260200190815260200160002060006101000a81548160ff0219169083151502179055508173ffffffffffffffffffffffffffffffffffffffff16610c17611020565b73ffffffffffffffffffffffffffffffffffffffff167f17307eab39ab6107e8899845ad3d59bd9653f200f220920489ca2b5937696c3183604051610c5c9190612a4d565b60405180910390a35050565b610c79610c73611020565b836110e1565b610cb8576040517f08c379a0000000000000000000000000000000000000000000000000000000008152600401610caf90612c4a565b60405180910390fd5b610cc48484848461141b565b50505050565b6060610cd582610fb4565b610d14576040517f08c379a0000000000000000000000000000000000000000000000000000000008152600401610d0b90612c0a565b60405180910390fd5b6000610d1e611477565b90506000815111610d3e5760405180602001604052806000815250610d69565b80610d488461148e565b604051602001610d599291906129c2565b6040516020818303038152906040525b915050919050565b600b81604051610d8191906129ab565b908152602001604051809103902060009054906101000a900460ff1615610da757600080fd5b600a81908060018154018082558091505060019003906000526020600020016000909190919091509080519060200190610de2929190611eae565b5060006001600a80549050610df79190612e00565b9050610e03338261163b565b6001600b83604051610e1591906129ab565b908152602001604051809103902060006101000a81548160ff0219169083151502179055505050565b6000600560008473ffffffffffffffffffffffffffffffffffffffff1673ffffffffffffffffffffffffffffffffffffffff16815260200190815260200160002060008373ffffffffffffffffffffffffffffffffffffffff1673ffffffffffffffffffffffffffffffffffffffff16815260200190815260200160002060009054906101000a900460ff16905092915050565b60007f80ac58cd000000000000000000000000000000000000000000000000000000007bffffffffffffffffffffffffffffffffffffffffffffffffffffffff1916827bffffffffffffffffffffffffffffffffffffffffffffffffffffffff19161480610f9d57507f5b5e139f000000000000000000000000000000000000000000000000000000007bffffffffffffffffffffffffffffffffffffffffffffffffffffffff1916827bffffffffffffffffffffffffffffffffffffffffffffffffffffffff1916145b80610fad5750610fac82611809565b5b9050919050565b60008073ffffffffffffffffffffffffffffffffffffffff166002600084815260200190815260200160002060009054906101000a900473ffffffffffffffffffffffffffffffffffffffff1673ffffffffffffffffffffffffffffffffffffffff1614159050919050565b600033905090565b816004600083815260200190815260200160002060006101000a81548173ffffffffffffffffffffffffffffffffffffffff021916908373ffffffffffffffffffffffffffffffffffffffff160217905550808273ffffffffffffffffffffffffffffffffffffffff1661109b8361083f565b73ffffffffffffffffffffffffffffffffffffffff167f8c5be1e5ebec7d5bd14f71427d1e84f3dd0314c0f7b2291e5b200ac8c7c3b92560405160405180910390a45050565b60006110ec82610fb4565b61112b576040517f08c379a000000000000000000000000000000000000000000000000000000000815260040161112290612b2a565b60405180910390fd5b60006111368361083f565b90508073ffffffffffffffffffffffffffffffffffffffff168473ffffffffffffffffffffffffffffffffffffffff1614806111a557508373ffffffffffffffffffffffffffffffffffffffff1661118d846104d9565b73ffffffffffffffffffffffffffffffffffffffff16145b806111b657506111b58185610e3e565b5b91505092915050565b8273ffffffffffffffffffffffffffffffffffffffff166111df8261083f565b73ffffffffffffffffffffffffffffffffffffffff1614611235576040517f08c379a000000000000000000000000000000000000000000000000000000000815260040161122c90612bea565b60405180910390fd5b600073ffffffffffffffffffffffffffffffffffffffff168273ffffffffffffffffffffffffffffffffffffffff1614156112a5576040517f08c379a000000000000000000000000000000000000000000000000000000000815260040161129c90612aea565b60405180910390fd5b6112b0838383611873565b6112bb600082611028565b6001600360008573ffffffffffffffffffffffffffffffffffffffff1673ffffffffffffffffffffffffffffffffffffffff168152602001908152602001600020600082825461130b9190612e00565b925050819055506001600360008473ffffffffffffffffffffffffffffffffffffffff1673ffffffffffffffffffffffffffffffffffffffff16815260200190815260200160002060008282546113629190612d79565b92505081905550816002600083815260200190815260200160002060006101000a81548173ffffffffffffffffffffffffffffffffffffffff021916908373ffffffffffffffffffffffffffffffffffffffff160217905550808273ffffffffffffffffffffffffffffffffffffffff168473ffffffffffffffffffffffffffffffffffffffff167fddf252ad1be2c89b69c2b068fc378daa952ba7f163c4a11628f55a4df523b3ef60405160405180910390a4505050565b6114268484846111bf565b61143284848484611987565b611471576040517f08c379a000000000000000000000000000000000000000000000000000000000815260040161146890612aaa565b60405180910390fd5b50505050565b606060405180602001604052806000815250905090565b606060008214156114d6576040518060400160405280600181526020017f30000000000000000000000000000000000000000000000000000000000000008152509050611636565b600082905060005b600082146115085780806114f190612f1c565b915050600a826115019190612dcf565b91506114de565b60008167ffffffffffffffff81111561154a577f4e487b7100000000000000000000000000000000000000000000000000000000600052604160045260246000fd5b6040519080825280601f01601f19166020018201604052801561157c5781602001600182028036833780820191505090505b5090505b6000851461162f576001826115959190612e00565b9150600a856115a49190612f65565b60306115b09190612d79565b60f81b8183815181106115ec577f4e487b7100000000000000000000000000000000000000000000000000000000600052603260045260246000fd5b60200101907effffffffffffffffffffffffffffffffffffffffffffffffffffffffffffff1916908160001a905350600a856116289190612dcf565b9450611580565b8093505050505b919050565b600073ffffffffffffffffffffffffffffffffffffffff168273ffffffffffffffffffffffffffffffffffffffff1614156116ab576040517f08c379a00000000000000000000000000000000000000000000000000000000081526004016116a290612baa565b60405180910390fd5b6116b481610fb4565b156116f4576040517f08c379a00000000000000000000000000000000000000000000000000000000081526004016116eb90612aca565b60405180910390fd5b61170060008383611873565b6001600360008473ffffffffffffffffffffffffffffffffffffffff1673ffffffffffffffffffffffffffffffffffffffff16815260200190815260200160002060008282546117509190612d79565b92505081905550816002600083815260200190815260200160002060006101000a81548173ffffffffffffffffffffffffffffffffffffffff021916908373ffffffffffffffffffffffffffffffffffffffff160217905550808273ffffffffffffffffffffffffffffffffffffffff16600073ffffffffffffffffffffffffffffffffffffffff167fddf252ad1be2c89b69c2b068fc378daa952ba7f163c4a11628f55a4df523b3ef60405160405180910390a45050565b60007f01ffc9a7000000000000000000000000000000000000000000000000000000007bffffffffffffffffffffffffffffffffffffffffffffffffffffffff1916827bffffffffffffffffffffffffffffffffffffffffffffffffffffffff1916149050919050565b61187e838383611b1e565b600073ffffffffffffffffffffffffffffffffffffffff168373ffffffffffffffffffffffffffffffffffffffff1614156118c1576118bc81611b23565b611900565b8173ffffffffffffffffffffffffffffffffffffffff168373ffffffffffffffffffffffffffffffffffffffff16146118ff576118fe8382611b6c565b5b5b600073ffffffffffffffffffffffffffffffffffffffff168273ffffffffffffffffffffffffffffffffffffffff1614156119435761193e81611cd9565b611982565b8273ffffffffffffffffffffffffffffffffffffffff168273ffffffffffffffffffffffffffffffffffffffff1614611981576119808282611e1c565b5b5b505050565b60006119a88473ffffffffffffffffffffffffffffffffffffffff16611e9b565b15611b11578373ffffffffffffffffffffffffffffffffffffffff1663150b7a026119d1611020565b8786866040518563ffffffff1660e01b81526004016119f39493929190612a01565b602060405180830381600087803b158015611a0d57600080fd5b505af1925050508015611a3e57506040513d601f19601f82011682018060405250810190611a3b919061225a565b60015b611ac1573d8060008114611a6e576040519150601f19603f3d011682016040523d82523d6000602084013e611a73565b606091505b50600081511415611ab9576040517f08c379a0000000000000000000000000000000000000000000000000000000008152600401611ab090612aaa565b60405180910390fd5b805181602001fd5b63150b7a0260e01b7bffffffffffffffffffffffffffffffffffffffffffffffffffffffff1916817bffffffffffffffffffffffffffffffffffffffffffffffffffffffff191614915050611b16565b600190505b949350505050565b505050565b6008805490506009600083815260200190815260200160002081905550600881908060018154018082558091505060019003906000526020600020016000909190919091505550565b60006001611b798461099d565b611b839190612e00565b9050600060076000848152602001908152602001600020549050818114611c68576000600660008673ffffffffffffffffffffffffffffffffffffffff1673ffffffffffffffffffffffffffffffffffffffff168152602001908152602001600020600084815260200190815260200160002054905080600660008773ffffffffffffffffffffffffffffffffffffffff1673ffffffffffffffffffffffffffffffffffffffff168152602001908152602001600020600084815260200190815260200160002081905550816007600083815260200190815260200160002081905550505b6007600084815260200190815260200160002060009055600660008573ffffffffffffffffffffffffffffffffffffffff1673ffffffffffffffffffffffffffffffffffffffff16815260200190815260200160002060008381526020019081526020016000206000905550505050565b60006001600880549050611ced9190612e00565b9050600060096000848152602001908152602001600020549050600060088381548110611d43577f4e487b7100000000000000000000000000000000000000000000000000000000600052603260045260246000fd5b906000526020600020015490508060088381548110611d8b577f4e487b7100000000000000000000000000000000000000000000000000000000600052603260045260246000fd5b906000526020600020018190555081600960008381526020019081526020016000208190555060096000858152602001908152602001600020600090556008805480611e00577f4e487b7100000000000000000000000000000000000000000000000000000000600052603160045260246000fd5b6001900381819060005260206000200160009055905550505050565b6000611e278361099d565b905081600660008573ffffffffffffffffffffffffffffffffffffffff1673ffffffffffffffffffffffffffffffffffffffff168152602001908152602001600020600083815260200190815260200160002081905550806007600084815260200190815260200160002081905550505050565b600080823b905060008111915050919050565b828054611eba90612eea565b90600052602060002090601f016020900481019282611edc5760008555611f23565b82601f10611ef557805160ff1916838001178555611f23565b82800160010185558215611f23579182015b82811115611f22578251825591602001919060010190611f07565b5b509050611f309190611f34565b5090565b5b80821115611f4d576000816000905550600101611f35565b5090565b6000611f64611f5f84612cd6565b612ca5565b905082815260208101848484011115611f7c57600080fd5b611f87848285612ea8565b509392505050565b6000611fa2611f9d84612d06565b612ca5565b905082815260208101848484011115611fba57600080fd5b611fc5848285612ea8565b509392505050565b600081359050611fdc81613063565b92915050565b600081359050611ff18161307a565b92915050565b60008135905061200681613091565b92915050565b60008151905061201b81613091565b92915050565b600082601f83011261203257600080fd5b8135612042848260208601611f51565b91505092915050565b600082601f83011261205c57600080fd5b813561206c848260208601611f8f565b91505092915050565b600081359050612084816130a8565b92915050565b60006020828403121561209c57600080fd5b60006120aa84828501611fcd565b91505092915050565b600080604083850312156120c657600080fd5b60006120d485828601611fcd565b92505060206120e585828601611fcd565b9150509250929050565b60008060006060848603121561210457600080fd5b600061211286828701611fcd565b935050602061212386828701611fcd565b925050604061213486828701612075565b9150509250925092565b6000806000806080858703121561215457600080fd5b600061216287828801611fcd565b945050602061217387828801611fcd565b935050604061218487828801612075565b925050606085013567ffffffffffffffff8111156121a157600080fd5b6121ad87828801612021565b91505092959194509250565b600080604083850312156121cc57600080fd5b60006121da85828601611fcd565b92505060206121eb85828601611fe2565b9150509250929050565b6000806040838503121561220857600080fd5b600061221685828601611fcd565b925050602061222785828601612075565b9150509250929050565b60006020828403121561224357600080fd5b600061225184828501611ff7565b91505092915050565b60006020828403121561226c57600080fd5b600061227a8482850161200c565b91505092915050565b60006020828403121561229557600080fd5b600082013567ffffffffffffffff8111156122af57600080fd5b6122bb8482850161204b565b91505092915050565b6000602082840312156122d657600080fd5b60006122e484828501612075565b91505092915050565b6122f681612e34565b82525050565b61230581612e46565b82525050565b600061231682612d36565b6123208185612d4c565b9350612330818560208601612eb7565b61233981613052565b840191505092915050565b600061234f82612d41565b6123598185612d5d565b9350612369818560208601612eb7565b61237281613052565b840191505092915050565b600061238882612d41565b6123928185612d6e565b93506123a2818560208601612eb7565b80840191505092915050565b60006123bb602b83612d5d565b91507f455243373231456e756d657261626c653a206f776e657220696e646578206f7560008301527f74206f6620626f756e64730000000000000000000000000000000000000000006020830152604082019050919050565b6000612421603283612d5d565b91507f4552433732313a207472616e7366657220746f206e6f6e20455243373231526560008301527f63656976657220696d706c656d656e74657200000000000000000000000000006020830152604082019050919050565b6000612487601c83612d5d565b91507f4552433732313a20746f6b656e20616c7265616479206d696e746564000000006000830152602082019050919050565b60006124c7602483612d5d565b91507f4552433732313a207472616e7366657220746f20746865207a65726f2061646460008301527f72657373000000000000000000000000000000000000000000000000000000006020830152604082019050919050565b600061252d601983612d5d565b91507f4552433732313a20617070726f766520746f2063616c6c6572000000000000006000830152602082019050919050565b600061256d602c83612d5d565b91507f4552433732313a206f70657261746f7220717565727920666f72206e6f6e657860008301527f697374656e7420746f6b656e00000000000000000000000000000000000000006020830152604082019050919050565b60006125d3603883612d5d565b91507f4552433732313a20617070726f76652063616c6c6572206973206e6f74206f7760008301527f6e6572206e6f7220617070726f76656420666f7220616c6c00000000000000006020830152604082019050919050565b6000612639602a83612d5d565b91507f4552433732313a2062616c616e636520717565727920666f7220746865207a6560008301527f726f2061646472657373000000000000000000000000000000000000000000006020830152604082019050919050565b600061269f602983612d5d565b91507f4552433732313a206f776e657220717565727920666f72206e6f6e657869737460008301527f656e7420746f6b656e00000000000000000000000000000000000000000000006020830152604082019050919050565b6000612705602083612d5d565b91507f4552433732313a206d696e7420746f20746865207a65726f20616464726573736000830152602082019050919050565b6000612745602c83612d5d565b91507f4552433732313a20617070726f76656420717565727920666f72206e6f6e657860008301527f697374656e7420746f6b656e00000000000000000000000000000000000000006020830152604082019050919050565b60006127ab602983612d5d565b91507f4552433732313a207472616e73666572206f6620746f6b656e2074686174206960008301527f73206e6f74206f776e00000000000000000000000000000000000000000000006020830152604082019050919050565b6000612811602f83612d5d565b91507f4552433732314d657461646174613a2055524920717565727920666f72206e6f60008301527f6e6578697374656e7420746f6b656e00000000000000000000000000000000006020830152604082019050919050565b6000612877602183612d5d565b91507f4552433732313a20617070726f76616c20746f2063757272656e74206f776e6560008301527f72000000000000000000000000000000000000000000000000000000000000006020830152604082019050919050565b60006128dd603183612d5d565b91507f4552433732313a207472616e736665722063616c6c6572206973206e6f74206f60008301527f776e6572206e6f7220617070726f7665640000000000000000000000000000006020830152604082019050919050565b6000612943602c83612d5d565b91507f455243373231456e756d657261626c653a20676c6f62616c20696e646578206f60008301527f7574206f6620626f756e647300000000000000000000000000000000000000006020830152604082019050919050565b6129a581612e9e565b82525050565b60006129b7828461237d565b915081905092915050565b60006129ce828561237d565b91506129da828461237d565b91508190509392505050565b60006020820190506129fb60008301846122ed565b92915050565b6000608082019050612a1660008301876122ed565b612a2360208301866122ed565b612a30604083018561299c565b8181036060830152612a42818461230b565b905095945050505050565b6000602082019050612a6260008301846122fc565b92915050565b60006020820190508181036000830152612a828184612344565b905092915050565b60006020820190508181036000830152612aa3816123ae565b9050919050565b60006020820190508181036000830152612ac381612414565b9050919050565b60006020820190508181036000830152612ae38161247a565b9050919050565b60006020820190508181036000830152612b03816124ba565b9050919050565b60006020820190508181036000830152612b2381612520565b9050919050565b60006020820190508181036000830152612b4381612560565b9050919050565b60006020820190508181036000830152612b63816125c6565b9050919050565b60006020820190508181036000830152612b838161262c565b9050919050565b60006020820190508181036000830152612ba381612692565b9050919050565b60006020820190508181036000830152612bc3816126f8565b9050919050565b60006020820190508181036000830152612be381612738565b9050919050565b60006020820190508181036000830152612c038161279e565b9050919050565b60006020820190508181036000830152612c2381612804565b9050919050565b60006020820190508181036000830152612c438161286a565b9050919050565b60006020820190508181036000830152612c63816128d0565b9050919050565b60006020820190508181036000830152612c8381612936565b9050919050565b6000602082019050612c9f600083018461299c565b92915050565b6000604051905081810181811067ffffffffffffffff82111715612ccc57612ccb613023565b5b8060405250919050565b600067ffffffffffffffff821115612cf157612cf0613023565b5b601f19601f8301169050602081019050919050565b600067ffffffffffffffff821115612d2157612d20613023565b5b601f19601f8301169050602081019050919050565b600081519050919050565b600081519050919050565b600082825260208201905092915050565b600082825260208201905092915050565b600081905092915050565b6000612d8482612e9e565b9150612d8f83612e9e565b9250827fffffffffffffffffffffffffffffffffffffffffffffffffffffffffffffffff03821115612dc457612dc3612f96565b5b828201905092915050565b6000612dda82612e9e565b9150612de583612e9e565b925082612df557612df4612fc5565b5b828204905092915050565b6000612e0b82612e9e565b9150612e1683612e9e565b925082821015612e2957612e28612f96565b5b828203905092915050565b6000612e3f82612e7e565b9050919050565b60008115159050919050565b60007fffffffff0000000000000000000000000000000000000000000000000000000082169050919050565b600073ffffffffffffffffffffffffffffffffffffffff82169050919050565b6000819050919050565b82818337600083830152505050565b60005b83811015612ed5578082015181840152602081019050612eba565b83811115612ee4576000848401525b50505050565b60006002820490506001821680612f0257607f821691505b60208210811415612f1657612f15612ff4565b5b50919050565b6000612f2782612e9e565b91507fffffffffffffffffffffffffffffffffffffffffffffffffffffffffffffffff821415612f5a57612f59612f96565b5b600182019050919050565b6000612f7082612e9e565b9150612f7b83612e9e565b925082612f8b57612f8a612fc5565b5b828206905092915050565b7f4e487b7100000000000000000000000000000000000000000000000000000000600052601160045260246000fd5b7f4e487b7100000000000000000000000000000000000000000000000000000000600052601260045260246000fd5b7f4e487b7100000000000000000000000000000000000000000000000000000000600052602260045260246000fd5b7f4e487b7100000000000000000000000000000000000000000000000000000000600052604160045260246000fd5b6000601f19601f8301169050919050565b61306c81612e34565b811461307757600080fd5b50565b61308381612e46565b811461308e57600080fd5b50565b61309a81612e52565b81146130a557600080fd5b50565b6130b181612e9e565b81146130bc57600080fd5b5056fea26469706673582212200927de0bb1201ed96ed45a4a1a0c9607a90b66ded35cfefd93e7aa94e38c851364736f6c63430008000033",
  "linkReferences": {},
  "deployedLinkReferences": {}
}